:1000000000400020F10B0000ED0B00003104000067
:10001000ED0B0000ED0B0000ED0B000000000000F8
:10002000000000000000000000000000ED0B0000D8
:10003000ED0B000000000000ED0B0000ED0B0000D8
:10004000ED0B0000ED1D0000111E0000351E00002C
:10005000591E0000ED0B0000DD1A0000A91A000077
:10006000ED0B00007D0E0000890E000085200000D1
:100070008F200000ED0B000039170000C90F0000B1
:10008000E90F0000ED0B00005D1B000031180000BF
:100090006910000079100000ED0B0000ED0B00006E
:1000A000F90F00000910000031100000411000009D
:1000B000591700006D170000ED0B0000ED0B00005C
:1000C000ED0B0000ED0B0000ED0B0000ED0B000050
:1000D000ED0B0000ED0B0000ED0B0000ED0B000040
:1000E00099200000DD190000D90F000099190000C7
:1000F000ED0B0000ED0B0000ED0B00000000000018
:1001000000000000000000000000000000000000EF
:1001100000000000000000000000000000000000DF
:10012000ED0B0000ED0B0000ED0B0000ED0B0000EF
:10013000ED0B0000ED0B0000ED0B0000ED0B0000DF
:1001400000000000000000004917000081170000B7
:1001500095170000A320000000000000ED0B000038
:10018000FFFFFFFFFFFFFFFFFFFFFFFFFFFFFFFF7F
:1001900003329CA7FD000000FFFFFFFFFFFFFFFFF2
:1001C00010B5054C227832B9044B13B10448AFF393
:1001D00000800123237010BD004C042000000000AB
:1001E000F87C000008B5034B1BB103490348AFF38B
:1001F000008008BD00000000044C0420F87C0000D2
:10020000134B002B08BF114B9D46A3F5803A0021EC
:100210008B460F461148124A121A02F0CBFE0D4BC4
:10022000002B00D098470C4B002B00D098470020A3
:10023000002104000D000B4802F006FB02F034FB25
:100240002000290000F01AF802F004FB000008006A
:10025000004000200000000000000000004C0420CE
:10026000A454042075280000C9B2012900D07047A9
:10027000014B00221A74FAE7CC4C042070B582B00E
:1002800000F05CFD30B1614A537C43F002035374CB
:1002900030BFFDE701F00AFB30B15C4A537C43F00C
:1002A0000203537430BFFDE70121084601F050FB03
:1002B00030B1564A537C43F00203537430BFFDE71C
:1002C0000121002001F044FB30B1504A537C43F03F
:1002D0000203537430BFFDE701F034FB30B14B4AE9
:1002E000537C43F00203537430BFFDE7484B009347
:1002F000B023484A0221002001F0FEF830B1434A01
:10030000537C43F00203537430BFFDE7002242499F
:100310003F4B186801F00CFA30B13C4A537C43F073
:100320000203537430BFFDE710213C4800F046FD46
:1003300030B1364A537C43F00203537430BFFDE7BB
:10034000374802F0D3FE00F08BF90824012664251B
:10035000304600F092F9284600F01CF9304600F0D3
:100360009CF9284600F016F9013C14F0FF04EFD187
:1003700001221146104600F051FD3021294801F0BC
:10038000E3FC30B1214A537C43F00203537430BF85
:10039000FDE700222449012001F016FD30B11B4A7F
:1003A000537C43F00203537430BFFDE7002101206A
:1003B00001F0DCFC30B1154A537C43F00203537466
:1003C00030BFFDE70123062218491148006801F0FB
:1003D0008CF930B10D4A537C43F00203537430BFA3
:1003E000FDE7002000F059F900F098FB074D0024CC
:1003F00000E030BFEB68002BFBD0204600F03DF959
:1004000000F06AFA204600F048F9F2E7CC4C0420EC
:100410006C5404201C4C0420B105000070540420CE
:10042000D4770000E04C042069020000401A042048
:1004300000BFFDE7012900D07047024B01221A706E
:10044000FAE700BF81540420012900D07047024B15
:1004500001221A70FAE700BF8054042070B584B0FE
:100460000C46054600B301284BD000208DF804004F
:1004700001238DF8053002228DF806208DF8073013
:10048000C1EBC10301EB8304C4EBC4046400A4B258
:10049000ADF80840ADF80A408DF80C008DF80D005D
:1004A00001A901F0A5FD26E00123002229491046FB
:1004B00001F038FD00268DF8046001238DF8053029
:1004C00002228DF806208DF80730C4EBC40304EB3C
:1004D0008304C4EBC4046400A4B2ADF80840ADF8D2
:1004E0000A408DF80C608DF80D6001A9304601F0CE
:1004F0007FFD194B1E700121284601F0A7FD04B0B5
:1005000070BD012300221549184601F00BFD00269D
:100510008DF8046001238DF8053002228DF8062045
:100520008DF80730C4EBC40304EB8304C4EBC404AC
:1005300063009BB2ADF80830ADF80A308DF80C605E
:100540008DF80D6001A9304601F052FD044B1E707C
:10055000D1E700BF350400008154042049040000A5
:100560008054042010B50446002101F06FFD0023E3
:100570001A461946204601F0D5FC10BD42F6491333
:1005800003FB00F0000B04D0002300BF01339842AE
:10059000FBD1704758B170B5054600244FF47A7608
:1005A0003046FFF7EBFF0134A542F9D170BD70472B
:1005B00000293ED11F4BDB68002B3AD110B51E4BF2
:1005C0009B794BBB1D4B19785A78063A02EB0122F6
:1005D00092B2194842809C78D97801EB042181803D
:1005E0001C79597901EB042189B2018042B10121C2
:1005F0008171002311491248006801F076F810BD9E
:1006000000230D4A93710B4AD16006220B490C4816
:10061000006801F06AF8F2E7074A00239371118835
:10062000044AD160062205490548006801F05DF8DA
:10063000E5E77047CC4C042084540420401A042081
:100640006C54042008B5002302460349034800689F
:1006500001F028F808BD00BF402204206C5404209B
:1006600008B501220421022000F0C2FB01224FF450
:100670008061022000F0BCFB08BD08B510B1012864
:1006800005D008BD0421022000F0E6FBF9E74FF495
:100690008061022000F0E0FBF3E708B510B101280B
:1006A00005D008BD0421022000F0CEFBF9E74FF48D
:1006B0008061022000F0C8FBF3E70000A1B110B494
:1006C0004B1EDBB20133C118084C10F8013B83EA22
:1006D000122334F8133083EA022292B28842F4D112
:1006E00010465DF8044B704710467047E8770000ED
:1006F0004368DBB110B401F5A8520532013B134049
:10070000006800EB830450F8230020B90BE000F1EF
:100710000804806838B103689342F8D100F10C03F3
:100720008B42F4D020465DF8044B704700207047A0
:1007300008B5FFF7DDFF034608B103685B6818469C
:1007400008BD2DE9F04383B005460F4690461E468E
:10075000FFF7CEFF044650B1036832464146586861
:1007600002F08EFB0026304603B0BDE8F08301970F
:1007700006F1140002F0BCF80746002864D001AB73
:1007800093E80300F860397400F5A8530533384640
:1007900040F8143B78603246414602F071FB6E68C7
:1007A000AB68B3423AD316B14FEA460909E04FF0BD
:1007B000010906E013469A689C601C46002AF9D19C
:1007C0001C46013EB6F1FF3F06D02B6853F8263099
:1007D000002BF0D12346F3E74FEA8901286802F0A5
:1007E0008DFC804648B32860C5F804906A68920082
:1007F000002102F0DFFB74B1A2686B68013B216845
:100800000B40296851F82310A160296841F8234062
:100810001446002AF0D1B8F1000F11D06B68013BEB
:100820003A6813402A6852F82310B96042F82370DE
:10083000AB680133AB60002695E728680028D5D166
:10084000384602F05DF88EE74FF0FF368BE738B59B
:1008500000240A252846FFF79DFE0134142CF9D107
:1008600000240A252846FFF795FE0134142CF9D1FF
:1008700038BD38B500240A252846FFF78BFE013421
:10088000142CF9D138BD08B54FF47A742046FFF71F
:1008900081FE2046FFF77EFEF8E7000010B582B02B
:1008A0000B4C23881A0A8DF804208DF8053000229D
:1008B000022101A8FFF702FF0246A1780548FFF7D1
:1008C000FDFEA388834214BF0020012002B010BDAA
:1008D00084540420401A042010B582B0604BDA68BA
:1008E0009A6000F057F9FFF7D9FF70B95C4A537C62
:1008F00043F0010353745A4C607C00F051F900F04E
:100900003BF90023E36002B010BD554C208900F094
:1009100065F9A368B3F5837F72D011D940F2015213
:10092000934200F0878030D840F20912934279D088
:10093000B3F5867F40F08E80494B00225A74DAE787
:1009400040F20312934242D0B3F5827F0AD240F2C2
:100950000112934227D0B3F5817F7BD1002000F0B4
:100960001FF92CE0B3F5827F35D040F20512934297
:1009700070D13C4B18785A780121914089B29B780C
:10098000002B3AD000F060FA19E040F20252934294
:100990005BD040F6011293425CD1314A537C43F064
:1009A00004035374A7E7112000F0FAF80B2000F0BD
:1009B000F7F81B2000F0F4F8012000F0F1F8284BC4
:1009C0009B68B3F5805F96D900F050F893E700205C
:1009D00000F0E6F8F3E7234B18785A7801219140AC
:1009E00089B2DA78003218BF01229B7813B100F087
:1009F00015FAE4E700F0FCF9E1E700F02DFADEE794
:100A0000184C6378012199400DF1060289B22078D3
:100A100000F02AFABDF8060063781841C0B200F071
:100A2000BFF8CCE70F4C207800F0BAF8607800F0FF
:100A3000B7F8C4E70B4B1A78597801EB0221084B41
:100A40005960094802F00AFBB9E7054B988800F0A5
:100A5000B3F8B4E7024A537C43F008035374AEE79B
:100A6000CC4C0420401A0420E87900002DE9F04124
:100A7000264C274B99682046FFF75AFEE060002875
:100A80003DD0234A537C6FF3C3035374214B197831
:100A90005E7806EB0126B6B29978DC7804EB012487
:100AA000A4B21A4D91682846FFF742FEE860056837
:100AB0009EB9BCB1013CA4B2174B1B78D3B94FF619
:100AC000FF77DFF85480A847013CA4B2BC4211D0A4
:100AD00098F80030002BF6D00CE031460020FFF7EC
:100AE000BDFCE6E70C4B1B7823B90B4CA8472378D9
:100AF000002BFBD046B10020FFF734FD04E0044A90
:100B0000537C43F008035374BDE8F0818C540420F7
:100B1000CC4C0420401A04208154042038B5124CD7
:100B2000002323606360A360E36025460F4B45F814
:100B3000103F04232A4641F201012046FFF701FE3F
:100B40000B4B236104232A4641F202012046FFF7A2
:100B5000F8FD084B236104232A4641F20301204695
:100B6000FFF7EFFD38BD00BF8C540420870800005C
:100B7000730800004F08000008B5044B1868044BC8
:100B8000020A1A705870FFF75DFD08BD104D042071
:100B900040220420014B04221A607047104D0420AB
:100BA000034A13680349C85401331360704700BFF8
:100BB000104D04204022042010B406490B68064A58
:100BC000040AD4541A44507002330B605DF8044B8D
:100BD000704700BF104D042040220420024B020A3F
:100BE0009A70D870704700BF40220420FEE70000D2
:100BF00008B500F083F8094A094B9A420CD2581EF6
:100C0000801A20F003000430064B184453F8041BEC
:100C100042F8041B8342F9D1FFF7F2FA00000420E6
:100C2000400A0420047D00001D4B1B6803F00303F1
:100C3000032B33D8DFE803F0020A130E194B1A4ACC
:100C40001A60184B1A68194B1A607047154B164AF0
:100C50001A60F6E7164B1A68124B1A60F1E710B4E7
:100C60000F4A1368D368D168D468D268C4F30044CB
:100C70000D48A04003F01F0303FB00F3C1F3C321A1
:100C8000B3FBF1F3C2F30022D340064A1360054BD5
:100C90001A68064B1A605DF8044B7047704700BF36
:100CA00000C304401C4D042080BA8C01144D042064
:100CB000184D0420C0F3400310F0180F18BF43F084
:100CC000020310F0200F18BF43F4807310F0C00F20
:100CD00018BF43F40073084A44F65900D06029B1A4
:100CE0001146526913434B610020704702494A691B
:100CF00022EA03034B61F7E700C0044008B5012175
:100D0000FA20FFF7D7FFEFF3108172B6094B0A4ABA
:100D10009A604FF4E0225A62D3F8882042F47002BD
:100D2000C3F88820BFF36F8FBFF34F8F81F3108814
:100D300008BD00BF00ED00E00000000008B500F0B5
:100D400001F808BD064B4FF4A0021A6040334FF47F
:100D5000AA621A6040334FF400421A6000207047C4
:100D6000000002402DE9F04182B00F46124D2E697D
:100D7000042406EBC00601E0013C19D055F8042B11
:100D8000092F0CBF138D938D9BB2118E0B40ADF8C4
:100D900006301386D6F80080B8F1000FECD0002B97
:100DA000EAD00DF10602C4F104017068C047E3E720
:100DB00002B0BDE8F08100BF000004200A4B1B69AF
:100DC0000BB100207047084A1061036011694B6045
:100DD00011698B601269D360044B4FF400721A6082
:100DE0004FF480621A60ECE70000042000E100E0AC
:100DF000094B53F82030EFF3108072B632B19A8865
:100E00001143998080F31088002070479A8822EA65
:100E100001019980F6E700BF00000420094B53F858
:100E20002030EFF3108072B632B19A891143998164
:100E300080F31088002070479A8922EA0101998185
:100E4000F6E700BF00000420024B53F8203019835E
:100E50000020704700000420024B53F82030998393
:100E60000020704700000420034B53F820301B8AF9
:100E700019401180002070470000042008B50921A6
:100E80000020FFF76FFF08BD08B50A210120FFF71A
:100E900069FF08BD38B50368198889B219800368ED
:100EA0001A8C11F0900F39D011F0100F03D0036994
:100EB00043F00103036111F0800F03D0036943F095
:100EC00002030361C369002B68D00268938A23F48C
:100ED00018531B041B0C9382012380F822304368B3
:100EE00093F90C30002B0DDB5A0903F01F0301218D
:100EF00001FA03F32032334941F82230BFF34F8F18
:100F0000BFF36F8F026813889BB213808368002B36
:100F100054D000220169C068984738BD94B204F0EB
:100F20000F02C2F1080292B2002A2FD0838B8BB13C
:100F3000036845692D781D8190F8205043692B4442
:100F40004361838B013B9BB28383013A92B2EAB146
:100F5000002BEDD1C4F303229AB1C38B8BB103688C
:100F60009C8883691C7090F82140836923448361C5
:100F7000C38B013B9BB2C383013A92B20AB1002BEF
:100F8000EDD1C369002BC8D1002408E090F82430CB
:100F9000002BDFD0838B002BF3D1DBE70124036828
:100FA0001A8A12F0020F90D011F0020F8DD11B8817
:100FB00013F0020F89D1002CAFD086E7283000F063
:100FC000B3FDAAE700E100E008B5024B1869FFF79E
:100FD00061FF08BD1400042008B5024B586AFFF7F2
:100FE00059FF08BD1400042008B5024B986BFFF7A9
:100FF00051FF08BD14000420024B1B6900229A8394
:10100000704700BF14000420084B1A690023D383E3
:1010100011688B8B23F007031B041B0C8B83126856
:10102000938A43F400539382704700BF1400042056
:10103000024B5B6A00229A83704700BF14000420B1
:10104000084B5A6A0023D38311688B8B23F0070364
:101050001B041B0C8B831268938A43F40053938206
:10106000704700BF14000420024B9B6B00229A8340
:10107000704700BF14000420084B9A6B0023D383F1
:1010800011688B8B23F007031B041B0C8B831268E6
:10109000938A43F400539382704700BF14000420E6
:1010A0004B7B002B39D030B443681C78012303FA02
:1010B00004F41D4AC2F814484468247803FA04F47E
:1010C00094624468247803FA04F4546244682478EF
:1010D000A3405363154B1B684268127812014C6899
:1010E000651E0C682C449C504268127803EB021277
:1010F000846854604268127803EB02124B68013B2B
:101100001B0143F0404343F00103936082689388DE
:1011100043F01003938030BC70478268938843F09B
:1011200002039380704700BF00000140187A00005E
:101130004B7B002B39D030B443685C78012303FA31
:1011400004F41D4AC2F81C484468647803FA04F4A5
:1011500094624468647803FA04F4546244686478DE
:10116000A3405363154B1B68426852781201846890
:101170009C504268527803EB02124C68651E0C6862
:101180002C4454604268527803EB02124B68013BD6
:101190001B0143F0406343F001039360826893882E
:1011A00043F02003938030BC70478268938843F0FB
:1011B00001039380704700BF00000140187A0000CF
:1011C00070B505460C461146E36A00221A73E36ABD
:1011D0001B69E362012926D08268938823F02003EB
:1011E0001B041B0C938090F82D3033B982689388D0
:1011F00023F001031B041B0C9380EB681BB194F8D4
:101200003430022B26D0236B1B691B68002B3ED089
:1012100004F13C0000F088FCE16A0B7B13B1A36B86
:101220002846984770BD8268938823F012031B04F8
:101230001B0C9380C3681BB194F83430022B09D087
:10124000AA68938A13F0400FFBD0138F9BB2002B38
:10125000F7D1D8E7AA690020A861236B1E6818603F
:10126000236B1B6923631B684BB15AB1EB680421E4
:101270002869984704F13C0000F056FCCCE784F85C
:101280003400F2E7EB68324628699847F2E784F8C1
:101290003430BDE738B50446436ADB6A1B6901296F
:1012A00012D002290CBF4FF480654FF480551A68A4
:1012B0000AB15A7B5AB9A3692B43A3610022616A20
:1012C0002046FFF77DFF38BD4FF48075EFE7A26938
:1012D0002A43A26100221A73616A2046FFF770FF59
:1012E000E9E738B50446036ADB6A1B69012912D0B5
:1012F00002290CBF4FF400654FF400551A680AB17B
:101300005A7B5AB9A3692B43A3610122216A204663
:10131000FFF756FF38BD4FF40075EFE7A2692A4387
:10132000A26100221A730122216A2046FFF748FFBA
:10133000E8E738B50546436ADC6A206800282ED005
:10134000237B93B9EB684BB30022022128699847AD
:1013500023681BBB237B0BBBAB681B881EE00022F2
:10136000696A2846FFF72CFF18E04A1ED2B289B1FD
:10137000A36861688B420DD2A9680988C9B2C154BB
:10138000A3680133A360013AD2B2FF2A02D0616898
:101390008B42F1D3A26863689A42E0D038BDEB6813
:1013A000002BD1D1D6E710B58268138903F00E0364
:1013B0000C2B24D8DFE803F052230723242329230E
:1013C000232323231F00036ADB6A1968B9B11C7B3E
:1013D000ACB19B68CB5C1380036ADA6A9368013313
:1013E0009360016ACB6A9A685B689A4207D30122CC
:1013F000FFF7E6FE03E0918EC9B2FFF79AFF10BD3A
:1014000090F82E10FFF795FFF9E7938A9BB213F03F
:10141000100F16D01288802213F0040F18D042F05B
:10142000200213F0020F01D042F04002037D002B96
:10143000E5D183691A4382610422416AFFF7C0FE45
:10144000DDE703F00802002A0CBF00221022E3E7C8
:1014500013F0020FE8D1002AD1D0E7E7B2F840300C
:1014600023F007031B041B0CA2F840300023037574
:10147000C5E70000836800229A80436893F903302F
:1014800093420DDB5A0903F01F03012101FA03F314
:101490002032184941F82230BFF34F8FBFF36F8FCE
:1014A000436893F90230002B0DDB5A0903F01F0348
:1014B000012101FA03F320320E4941F82230BFF333
:1014C0004F8FBFF36F8F436893F90430002B0DDB10
:1014D0005A0903F01F03012101FA03F320320549E1
:1014E00041F82230BFF34F8FBFF36F8F4368002066
:1014F000D860704700E100E02DE9F04105468846DC
:101500001446069F002139601A46204601F052FD1C
:101510005C4B03EB051363609B68A360264606F8EB
:10152000308B00F041F9B8F1010F20D16662002341
:1015300086F83430626A9262626A1263626AD262C8
:10154000626AD363636A504A9A63636A03F114025E
:101550001A61636A5B62636822464C49587800F0FE
:101560004BF9E8B12046FFF785FF0F207EE02662A9
:10157000002284F86420A6652666E665E266444A91
:10158000A26604F14402226466656368224641490A
:10159000187800F031F900286AD1B8F1000F6CD149
:1015A000A0683D49C5EBC50252008B188A5A82815A
:1015B000A26859881185A26899889184A268D988FF
:1015C0009185A26819891184A26859899187A268B6
:1015D0009B899380A268138C03F0010384F82D305B
:1015E000138CC3F381132D4AD35C84F82E303C60F6
:1015F000244B03EB0515EC60636893F90430002B72
:1016000017DB5A0903F01F03012101FA03F36032CB
:10161000234941F82230636893F90430002B08DB3A
:10162000590903F01F03012202FA03F31C4A42F88E
:101630002130636893F90230002B08DB590903F06D
:101640001F03012202FA03F3154A42F821306368AE
:1016500093F90330002B13DB590903F01F03012218
:1016600002FA03F30E4A42F821300020BDE8F0816F
:101670002046FFF7FFFE0F20F8E704F1700655E75C
:101680000020F3E750000420311100009512000003
:10169000A1100000E3120000F8790000147A0000A5
:1016A00000E100E010B5046AA46A2160016A896A59
:1016B0004A60026A926A00219160026A926A01217C
:1016C0001173026A926A5373036A9A6A12699A6280
:1016D000036A93F8342032B9022283F83420036A73
:1016E0009A6BD96A9047002010BD10B5446AA46A6D
:1016F0002160416A896A4A60426A926A0021916067
:10170000426A926A01211173426A926A5373436A70
:101710009A6A12699A62436A93F8342032B90222B3
:1017200083F83420436A9A6BD96A9047002010BD31
:10173000C16002610020704708B5024BD868FFF70E
:1017400032FE08BD5000042008B5024BD869FFF7EF
:101750002AFE08BD5000042008B5034BD8680122BA
:10176000016AFFF72DFD08BD5000042008B5034BAA
:10177000D8680022416AFFF723FD08BD500004200D
:1017800008B5034BD8690122016AFFF719FD08BDAE
:101790005000042008B5034BD8690022416AFFF7C6
:1017A0000FFD08BD50000420EFF3108172B60E4B00
:1017B0001B78B3B90C4B01221A700C4B5A6842F0DB
:1017C00001025A600A4A9A600A4A4FF400201060E7
:1017D0006FF078421A62DA625A63DA639A64DA6402
:1017E0001A6581F310887047204D042000000140E5
:1017F0000050042000E100E010B40C4C04EBC004E5
:101800006160A2600123834051B1084AD2F8DC0034
:101810000343064AC2F8DC3000205DF8044B7047F1
:10182000024AD2F8DC0020EA0303F2E7204D04204C
:101830002DE9F84F1B4BD3F84CB09F6CD3F850A058
:1018400047EA0A04184BD3F8DC301C4022D0B4FA23
:1018500084F24FF00108144E4FF0000905E024EA2D
:101860000504B4FA84F21F2A14D8C2F11F0208FA40
:1018700002F506EBC2035B68002BF0D007EA050116
:10188000002906EBC2004A4614BF012102218068EC
:101890009847E4E7034B9F64C3F850A0C3F84CB0EB
:1018A000BDE8F88F00000140204D042010B51F4B0B
:1018B0004CF61432DA601E4919611E490020086096
:1018C000DA601A6942F002021A611A46136913F4C7
:1018D000007FFBD0184B1A6822F003021A60002424
:1018E0001C60164A5A609C6046F61A02DA605F2253
:1018F0005A61A3F540731C609C605C6403F58073BF
:101900004CF61432DA601A6922F008021A610C4BA4
:1019100040221A6080221A604FF400725A604FF41D
:1019200000625A60FFF780F9204610BD00C10440F4
:1019300002C001000854042000C304400404100045
:1019400000E100E008B5FFF76FF9002008BD0000D6
:1019500010B5012805D043B29BB1022815D0042050
:101960000EE03F24EFF3108072B6094A536823EA71
:1019700004031943516080F31088FFF755F90020E4
:1019800010BD09024FF47C54ECE70904014CE9E76F
:1019900000C304400000FF0138B50D4B9B6903F004
:1019A00006050C4A14683CB113F0040F07D000225E
:1019B0000F21094B1868A047054B9D6138BD13F0F6
:1019C000020FF9D000220E21034B1868A047F3E75D
:1019D00000C304400854042004540420F8B52D4BDF
:1019E0009B6903F4CC452C4A17692C4C3C402C4A8B
:1019F0001668002E41D0CDB113F4804F0AD113F4F4
:101A0000005F0FD113F4007F0ED113F4806F06D066
:101A10000D2100E00B210022224B1868B0471D4B1E
:101A20009D61F8BD0A21F6E70C21F4E7002CF8D0FF
:101A3000002C12DB17F0804F23D000220821194B15
:101A40001868B04717F4800F1BD0154B1B68002295
:101A5000092114480068984713E000220721114B20
:101A60001868B04717F4005F0BD00D4B1B680022BD
:101A700006210C480068984703E0002DCFD1002CC8
:101A8000CFD0054B4CF61432DA601A6914431C614E
:101A9000C7E700BF00C3044000C10440002040C0AD
:101AA000085404200454042008B5094B596811F067
:101AB000010F0BD0074B1B681BB1002206480068C2
:101AC0009847034A536843F00103536008BD00BFC1
:101AD00000C00440085404200454042010B50F4BE7
:101AE0005C680F4B1B688BB114F0040F04D000220C
:101AF00011460C480068984714F0020F06D0084BB6
:101B00001B6800220121074800689847034B5A6868
:101B100004F0060414435C6010BD00BF00C0044024
:101B20000854042004540420024620B113680133F1
:101B3000136000207047EFF3108172B6054A1369F5
:101B400023F002031361BFF34F8F81F31088024A21
:101B5000ECE700BF00ED00E00054042038B5764B00
:101B6000D86803689A880281827A1AB1C2891A8376
:101B700000238372714B1988038903F0040399428F
:101B800031D1038903F00803994272D16B4B1A8853
:101B9000038903F0B0018A4240F09D8003F4807312
:101BA0009A421FD001688B8803F488639A42FAD165
:101BB000436893F90030002B0DDB5A0903F01F0333
:101BC000012101FA03F320325D4941F82230BFF3CD
:101BD0004F8FBFF36F8F03685A4A12881A802C30D8
:101BE000FFF7A2FF38BD0368B3F84C30C3F301130D
:101BF000C3F102039BB2028B92B292B18BB14269E4
:101C000012780468A281426901324261028B013A72
:101C100092B20283013B9BB2028B92B20AB1002BBB
:101C2000EDD1028B92B2E2B9028D92B2B2B9028CBE
:101C300092B2B2B1ABB1C26912780468A281C26932
:101C40000132C261028C013A92B20284013B9BB222
:101C5000028C92B22AB1002BEDD102E00368C28956
:101C60001A83038C9BB2002B8BD1036804229A80C9
:101C700087E70368B3F84C30C3F38113002B85D09A
:101C800000244FF4807108E02982028DA2F5807251
:101C900092B20285002B3FF479AF013B9BB2026800
:101CA0001289456AD2B22A70426A013242620568DC
:101CB000AA8A92B2002AEDD1028D92B2B2F5807F4B
:101CC000E2D8028D92B2002AE4D0028D013A92B29B
:101CD0002A820485DEE703F010018A4205D090F8DD
:101CE0002B1041F0010180F82B1003F080018A4293
:101CF00015D090F82B1041F0020180F82B1003F062
:101D00002001914205D090F82B1041F0040180F899
:101D10002B1003F480739A423FF461AF42E703F063
:101D200020018A42EFD190F82B100029F1D108212F
:101D300080F82B10EDE700BF7C0004200C54042039
:101D400000E100E070000420074B1B680BB100208D
:101D5000704710B50A460446002101F02BF9024BEA
:101D60001C60002010BD00BF1054042030B484005B
:101D70000F2303FA04F205281DD041F00801A14009
:101D8000013040B2EFF3108572B60D4C236823EAA0
:101D900002031943216085F31088002808DB4209FB
:101DA00000F01F00012303FA00F0064B43F8220065
:101DB000002030BC7047490541F480110420E1E760
:101DC00080C0044000E100E030B4EFF3108472B64C
:101DD000054B1B6803EBC00543F830106A6084F3C1
:101DE0001088002030BC70471054042008B5064B02
:101DF00001221A61054B186803681BB100221146C5
:101E00004068984708BD00BF80C0044010540420BB
:101E100008B5064B02221A61054B186883681BB18E
:101E200000220121C068984708BD00BF80C004405F
:101E30001054042008B5064B04221A61054B18689B
:101E400003691BB1002202214069984708BD00BF09
:101E500080C004401054042008B50F4B5B6813F099
:101E6000200F0BD00C4B20221A610C4B1868836A90
:101E70001BB100220521C06A984708BD064B082205
:101E80001A61064B18688369002BF6D000220321E3
:101E9000C0699847F1E700BF80C004401054042097
:101EA0000A4B53F82000838B19420AD040F2E733E3
:101EB000828B114207D0013B9BB2002BF8D1062048
:101EC0007047002070470020704700BF587A00001C
:101ED00070B5114B53F82060B58B104B53F8203080
:101EE000B3B1ADB2044615F0010F05D000220121B7
:101EF0000B4850F82400984715F0020F08D0074B04
:101F000053F8243000220221054850F82400984755
:101F10000323B38170BD00BF587A0000145404201D
:101F20002454042010B4274C44F82010264941F8CA
:101F300020206BB3254B1B56002B08DB590903F0FF
:101F40001F03012202FA03F3214A42F82130214BF8
:101F500053F82030204A32F810201A811F4A32F8F4
:101F600010201A801E4A32F810209A821D4A32F838
:101F700010201A841C4A32F810209A841B4A32F826
:101F800010201A85032816D000205DF8044B7047F6
:101F90000E4B1B56002BDADB5A0903F01F030121FD
:101FA00001FA03F320320A4941F82230BFF34F8F80
:101FB000BFF36F8FCBE700229A851A869A861A871D
:101FC000E2E700BF1454042024540420547A000093
:101FD00000E100E0587A0000247A0000347A000022
:101FE0001C7A00003C7A0000487A00002C7A00003D
:101FF00038B50C46144B53F820508B882B80CB8877
:10200000AB824021FFF74CFFD8B901462B8903F47E
:10201000C043E078A27842EA4012134362780AB1E2
:1020200043F0080322780AB143F00403227A0AB18C
:1020300043F08003627A0AB143F400432B810846DF
:1020400038BD0621FBE700BF587A000038B50546C9
:102050000C464021FFF724FF80B90146084B53F896
:102060002520138923F010031B041B0C13811CB1C2
:10207000138943F010031381084638BD0621FBE79E
:10208000587A000008B50020FFF722FF08BD08B508
:102090000120FFF71DFF08BD08B50220FFF718FF5C
:1020A00008BD08B50320FFF713FF08BD81F000410C
:1020B00002E000BF83F0004330B54FEA41044FEA2D
:1020C000430594EA050F08BF90EA020F1FBF54EAC8
:1020D000000C55EA020C7FEA645C7FEA655C00F064
:1020E000E2804FEA5454D4EB5555B8BF6D420CDD35
:1020F0002C4480EA020281EA030382EA000083EAB8
:10210000010180EA020281EA0303362D88BF30BD57
:1021100011F0004F4FEA01314FF4801C4CEA1131AD
:1021200002D0404261EB410113F0004F4FEA03330C
:102130004CEA133302D0524263EB430394EA050F97
:1021400000F0A780A4F10104D5F1200E0DDB02FA06
:102150000EFC22FA05F2801841F1000103FA0EF29A
:10216000801843FA05F359410EE0A5F120050EF160
:10217000200E012A03FA0EFC28BF4CF0020C43FA91
:1021800005F3C01851EBE37101F0004507D54FF09E
:10219000000EDCF1000C7EEB00006EEB0101B1F5EE
:1021A000801F1BD3B1F5001F0CD349085FEA300034
:1021B0004FEA3C0C04F101044FEA445212F5800F3F
:1021C00080F09A80BCF1004F08BF5FEA500C50F1DC
:1021D000000041EB045141EA050130BD5FEA4C0CBF
:1021E000404141EB010111F4801FA4F10104E9D148
:1021F00091F0000F04BF01460020B1FA81F308BF3F
:102200002033A3F10B03B3F120020CDA0C3208DD0A
:1022100002F1140CC2F10C0201FA0CF021FA02F1E5
:102220000CE002F11402D8BFC2F1200C01FA02F155
:1022300020FA0CFCDCBF41EA0C019040E41AA2BF7A
:1022400001EB0451294330BD6FEA04041F3C1CDA42
:102250000C340EDC04F11404C4F1200220FA04F062
:1022600001FA02F340EA030021FA04F345EA03010C
:1022700030BDC4F10C04C4F1200220FA02F001FACE
:1022800004F340EA0300294630BD21FA04F0294650
:1022900030BD94F0000F83F4801306BF81F48011E9
:1022A0000134013D4EE77FEA645C18BF7FEA655C5C
:1022B00029D094EA050F08BF90EA020F05D054EA2E
:1022C000000C04BF1946104630BD91EA030F1EBF33
:1022D0000021002030BD5FEA545C05D14000494137
:1022E00028BF41F0004130BD14F580043CBF01F52A
:1022F000801130BD01F0004545F0FE4141F4700110
:102300004FF0000030BD7FEA645C1ABF19461046EA
:102310007FEA655C1CBF0B46024650EA013406BFEB
:1023200052EA033591EA030F41F4002130BD00BFAA
:1023300090F0000F04BF0021704730B54FF4806467
:1023400004F132044FF000054FF0000150E700BFE8
:1023500090F0000F04BF0021704730B54FF4806447
:1023600004F1320410F0004548BF40424FF0000134
:102370003EE700BF42004FEAE2014FEA31014FEA77
:1023800002701FBF12F07F4393F07F4F81F06051C6
:10239000704732F07F4208BF704793F07F4F04BF11
:1023A00041F40021704730B54FF4607401F00045EE
:1023B00021F000411CE700BF50EA010208BF70474E
:1023C00030B54FF000050AE050EA010208BF70473F
:1023D00030B511F0004502D5404261EB41014FF4A8
:1023E000806404F132045FEA915C3FF4D8AE4FF0B0
:1023F00003025FEADC0C18BF03325FEADC0C18BF93
:10240000033202EBDC02C2F1200300FA03FC20FAE3
:1024100002F001FA03FE40EA0E0021FA02F1144430
:10242000BDE600BF70B54FF0FF0C4CF4E06C1CEA49
:1024300011541DBF1CEA135594EA0C0F95EA0C0FBA
:1024400000F0DEF82C4481EA030621EA4C5123EA2D
:102450004C5350EA013518BF52EA033541F480115C
:1024600043F4801338D0A0FB02CE4FF00005E1FB0F
:1024700002E506F00042E0FB03E54FF00006E1FB59
:1024800003569CF0000F18BF4EF0010EA4F1FF049C
:10249000B6F5007F64F5407404D25FEA4E0E6D41DC
:1024A00046EB060642EAC62141EA55514FEAC520ED
:1024B00040EA5E504FEACE2EB4F1FD0C88BFBCF569
:1024C000E06F1ED8BEF1004F08BF5FEA500E50F11A
:1024D000000041EB045170BD06F0004646EA0101E0
:1024E00040EA020081EA0301B4EB5C04C2BFD4EB12
:1024F0000C0541EA045170BD41F480114FF0000E0B
:10250000013C00F3AB8014F1360FDEBF002001F078
:10251000004170BDC4F10004203C35DA0C341BDCF2
:1025200004F11404C4F1200500FA05F320FA04F0C4
:1025300001FA05F240EA020001F0004221F00041F8
:1025400010EBD37021FA04F642EB06015EEA430E6B
:1025500008BF20EAD37070BDC4F10C04C4F120059B
:1025600000FA04F320FA05F001FA04F240EA02004E
:1025700001F0004110EBD37041F100015EEA430E1F
:1025800008BF20EAD37070BDC4F1200500FA05F23F
:102590004EEA020E20FA04F301FA05F243EA0203BE
:1025A00021FA04F001F0004121FA04F220EA0200CD
:1025B00000EBD3705EEA430E08BF20EAD37070BD13
:1025C00094F0000F0FD101F00046400041EB0101F3
:1025D00011F4801F08BF013CF7D041EA060195F0D5
:1025E000000F18BF704703F00046520043EB03038F
:1025F00013F4801F08BF013DF7D043EA060370477C
:1026000094EA0C0F0CEA135518BF95EA0C0F0CD086
:1026100050EA410618BF52EA4306D1D181EA0301CC
:1026200001F000414FF0000070BD50EA410606BFC6
:102630001046194652EA430619D094EA0C0F02D10B
:1026400050EA013613D195EA0C0F05D152EA033650
:102650001CBF104619460AD181EA030101F000416E
:1026600041F0FE4141F470014FF0000070BD41F0B7
:10267000FE4141F4780170BD70B54FF0FF0C4CF491
:10268000E06C1CEA11541DBF1CEA135594EA0C0FB0
:1026900095EA0C0F00F0A7F8A4EB050481EA030EFD
:1026A00052EA03354FEA013100F088804FEA0333E4
:1026B0004FF0805545EA131343EA12634FEA0222B2
:1026C00045EA111545EA10654FEA00260EF0004173
:1026D0009D4208BF964244F1FD0404F5407402D2C5
:1026E0005B084FEA3202B61A65EB03055B084FEA56
:1026F00032024FF480104FF4002CB6EB020E75EB53
:10270000030E22BFB61A754640EA0C005B084FEA7A
:102710003202B6EB020E75EB030E22BFB61A7546F7
:1027200040EA5C005B084FEA3202B6EB020E75EB42
:10273000030E22BFB61A754640EA9C005B084FEABA
:102740003202B6EB020E75EB030E22BFB61A7546C7
:1027500040EADC0055EA060E18D04FEA051545EAB6
:1027600016754FEA06164FEAC30343EA52734FEA5F
:10277000C2025FEA1C1CC0D111F4801F0BD141EAD8
:1027800000014FF000004FF0004CB6E711F4801F3D
:1027900004BF01430020B4F1FD0C88BFBCF5E06F1D
:1027A0003FF6AFAEB5EB030C04BFB6EB020C5FEA2D
:1027B000500C50F1000041EB045170BD0EF0004E82
:1027C0004EEA113114EB5C04C2BFD4EB0C0541EAB4
:1027D000045170BD41F480114FF0000E013C90E6B1
:1027E00045EA060E8DE60CEA135594EA0C0F08BF75
:1027F00095EA0C0F3FF43BAF94EA0C0F0AD150EA74
:1028000001347FF434AF95EA0C0F7FF425AF104606
:1028100019462CE795EA0C0F06D152EA03353FF42E
:10282000FDAE1046194622E750EA410618BF52EAAB
:1028300043067FF4C5AE50EA41047FF40DAF52EA7F
:1028400043057FF4EBAE12E7002301461A46184613
:1028500002F008BA08B50021044602F041FA044B20
:102860001868C36B03B19847204604F0A5FF00BF6A
:10287000687A000038B50A4C0A4D641BA4100AD0CF
:1028800004F18043013B05EB8305013C55F8043915
:102890009847002CF9D1BDE8384004F095BF00BF3F
:1028A000400A04203C0A042070B50D4E0D4D761BE5
:1028B000B61006D00024013455F8043B9847A642D0
:1028C000F9D1094E094D761B04F078FFB61006D0F9
:1028D0000024013455F8043B9847A642F9D170BD55
:1028E000340A0420340A04203C0A0420340A042058
:1028F000024B0146186800F00BB800BF8C000420A2
:10290000024B0146186803F07FBB00BF8C00042017
:102910002DE9F04F01F10B05162D83B0064623D8A3
:10292000102900F2B98000F095FB10251823022031
:10293000BA4F3B44A3F108025C68944200F0B980AE
:10294000636823F003032344D4E902515A68E96021
:1029500042F0010230468D605A6000F07DFB083481
:10296000204603B0BDE8F08F35F0070500F19480F4
:10297000A94200F2918000F06DFBB5F5FC7FC0F03C
:10298000A2816B0A00F08F80042B00F27881AB09E2
:1029900003F1390003F1380CC300A04F3B44A3F10D
:1029A00008015C68A14206D10CE0002A80F2278170
:1029B000E468A14206D0636823F003035A1B0F2A80
:1029C000F3DD60463C69DFF868C264457CD063682B
:1029D00023F003035A1B0F2A00F38381002AC7E95F
:1029E00004CC80F27481B3F5007F80F02581DB0890
:1029F000591C7A6857F83180C4F808804FF0010EEE
:102A00009B100EFA03F307EBC10E1343AEF108025D
:102A1000E2607B6047F83140C8F80C408210012426
:102A200094409C4256D81C4206D120F0030064001A
:102A30001C4200F10400FAD007EBC009CE468046E4
:102A4000DEF80C309E4507D125E1002A80F22C816A
:102A5000DB689E4500F01F81596821F003014A1B85
:102A60000F2AF2DDD3E9028E5C1945F001055D60A5
:102A700042F00105C8F80CE03046CEF80880C7E9FE
:102A80000444C4E902CC65605A50009300F0E4FAB3
:102A9000009B03F1080402E00C233360002420466D
:102AA00003B0BDE8F08F4FF4007340204FF03F0CAF
:102AB00073E7DC68A34208BF02307FF441AF3C6992
:102AC000DFF86CC1644582D17B6882100124944098
:102AD0009C42A8D9BC68636823F00308A84503D3C7
:102AE000A8EB05030F2B7ADCDFF848914C4BD9F8A3
:102AF00000201B6801322B4404EB080A00F03C81E3
:102B000003F580530F3323F47F6B2BF00F0B5946E3
:102B1000304600F0B1FC411C024600F0FC808245CA
:102B200000F2F7803F4B186858441860014600F0E7
:102B30005781D9F80000019301301BBFA2EB0A0AAC
:102B40005144C9F80020196012F0070A00F02081F2
:102B5000CAF108010A44CAF5805193440831A1EB37
:102B60000B01C1F30B0949463046009200F084FC8A
:102B7000421CDDE9002300F05881801A00EB090BAC
:102B80001868BA604BF001014844BC4251601860BB
:102B900000F03281B8F10F0F40F230816168A8F186
:102BA0000C0C2CF0070C01F0010104EB0C0E41EAB7
:102BB0000C014FF00508BCF10F0F6160CEE90188F0
:102BC00000F23B8151681446174B1A68824238BFA5
:102BD0001860164B1A68824238BF18609DE062196F
:102BE00043F0010345F0010565603046BA6053606B
:102BF00000F032FA0834204603B0BDE8F08F2344D9
:102C0000E1685A68A56842F00102E96030468D60CB
:102C10005A6000F021FA083441E700BFB8040420EC
:102C200064540420345404205C5404206054042070
:102C3000C0040420C00804205A0A042A63D9142AB4
:102C400000F2B78002F15C01C9005B3207EB010EB4
:102C50007958AEF1080E8E4500F091804A6822F056
:102C600003029A4202D989688E45F7D1D1F80CE067
:102C70007B68C4E9021ECEF80840CC60CEE6142B77
:102C800059D9542B00F29D802B0B03F16F0003F1F7
:102C90006E0CC30081E608F1010818F0030F0EF175
:102CA000080E7FF4CDAE51E019441C464A68DB683B
:102CB00054F8085F42F001024A603046EB609D60C4
:102CC00000F0CAF9EBE6E80805F1080330E6234412
:102CD00030465A6842F001025A60083400F0BCF9EC
:102CE000DDE6611945F0010E42F00105C4F804E08B
:102CF0003046C7E90411C1E902CC4D60E25000F052
:102D0000ABF90834CBE69A0902F13901C90038322F
:102D10009CE7BC425FD0BC68616821F0030BAB4507
:102D2000ABEB050302D30F2B3FF759AF304600F052
:102D300093F90024B3E603F15C0003F15B0CC300DC
:102D40002BE659F808394B4540F0968010F0030FF8
:102D500000F1FF30F5D17B6823EA04037B60640057
:102D60009C423FF6B7AE1CB9B4E6640008F1040813
:102D70001C42FAD040465FE603F1100BC7E67B68C1
:102D800092104FF0010808FA02F213437B6070E7DB
:102D900002EB0B004042C0F30B094946304600925B
:102DA00000F06AFB431CDDE900237FF4E6AED14668
:102DB000E6E6542A25D81A0B02F16F01C9006E32DB
:102DC00044E7B3F5AA7F25D8EB0B03F1780003F1B4
:102DD000770CC300E1E5294B196859441960A8E64E
:102DE000CAF30B0CBCF1000F7FF4A3AEC344BC6864
:102DF0004BF001016160E7E61446E5E6012353600C
:102E000094E7B2F5AA7F23D8DA0B02F17801C90062
:102E100077321BE740F25452934223D8AB0C03F1B4
:102E20007D0003F17C0CC300B7E5AAF1080AD34486
:102E3000ABEB020B4FF00009A2E604F108013046AB
:102E4000009303F0E1F8BC68009B61681868BBE67A
:102E500040F254518A420BD89A0C02F17D01C9000C
:102E60007C32F3E64FF47E737F204FF07E0C94E5C6
:102E70004FF47E717E22E9E67B6870E734540420CB
:102E8000844641EA000313F003036DD1403A41D375
:102E900051F8043B40F8043B51F8043B40F8043B34
:102EA00051F8043B40F8043B51F8043B40F8043B24
:102EB00051F8043B40F8043B51F8043B40F8043B14
:102EC00051F8043B40F8043B51F8043B40F8043B04
:102ED00051F8043B40F8043B51F8043B40F8043BF4
:102EE00051F8043B40F8043B51F8043B40F8043BE4
:102EF00051F8043B40F8043B51F8043B40F8043BD4
:102F000051F8043B40F8043B51F8043B40F8043BC3
:102F1000403ABDD2303211D351F8043B40F8043B63
:102F200051F8043B40F8043B51F8043B40F8043BA3
:102F300051F8043B40F8043B103AEDD20C3205D373
:102F400051F8043B40F8043B043AF9D2043208D06B
:102F5000D2071CBF11F8013B00F8013B01D30B88DD
:102F600003806046704700BF082A13D38B078DD0BB
:102F700010F003038AD0C3F10403D21ADB071CBF8D
:102F800011F8013B00F8013B80D331F8023B20F8F7
:102F9000023B7BE7043AD9D3013A11F8013B00F830
:102FA000013BF9D20B7803704B7843708B788370B8
:102FB00060467047F0B4860746D0541E002A3CD0C5
:102FC000CAB2034602E014F1FF3436D303F8012BF2
:102FD0009D07F8D1032C29D9CDB245EA05250F2C40
:102FE00045EA054533D9A4F11006360903F1200757
:102FF00007EB061703F1100242E9045542E90255B6
:103000001032BA42F8D1721C14F00C0F03EB02120A
:1030100004F00F0613D0331F23F0030304331344CB
:1030200042F8045B9342FBD106F003042CB1C9B211
:103030001C4403F8011B9C42FBD1F0BC7047344692
:103040001346002CF3D1F8E714460346C2E71A46AC
:103050002646E0E7704700BF704700BF0FB400B5D9
:10306000074983B004AB086853F8042B81680193C7
:1030700000F096FA03B05DF804EB04B0704700BFAF
:103080008C00042070B5054688B008460C4600F058
:1030900017FA154AAB6B04940126441C04A9069246
:1030A000022203940590AC680796CDE90112B3B1F2
:1030B000B4F90C309A0406D4626E43F4005322F43F
:1030C0000052A38162662146284601AA03F092F8C5
:1030D000002814BF4FF0FF300A2008B070BD28460A
:1030E00002F038FFE4E700BF6C7A0000024B0146B3
:1030F0001868FFF7C7BF00BF8C000420024B0A46C8
:103100000146186800F002B88C0004202DE9F84F41
:103110001746002900F0BB8007F10B0481460D46DD
:10312000FFF798FF162C5ED810242246A7425FD8DE
:1031300055F804EC2EF00306A5F10808964208EBBA
:10314000060A80F28180CB4BDAF804009968514579
:1031500000F0B58020F0010353445B68DB0700F109
:103160008A8020F003003318934280F212811EF00F
:10317000010F0FD155F8083CA8EB030BDBF8041046
:1031800021F0030108448319934280F216817318D9
:10319000934234DA39464846FFF7BAFB0746E0B1B6
:1031A00055F8043C23F001034344A0F10802934284
:1031B00000F0F780321F242A00F2FB80132A2968CE
:1031C00000F2C98003462A46196051685960926826
:1031D0009A602946484602F017FF4846FFF73CFF31
:1031E0003846BDE8F88F24F00704002C22469DDA0B
:1031F0000C23C9F8003000273846BDE8F88F5F4639
:10320000DBF80C1057F8080F321F242AC1600BEBB3
:10321000030A886000F2D980132A296840F2D3801B
:10322000CBF808106968CBF80C101B2AA96800F2CB
:10323000E0800BF110020835116069685160A968DF
:1032400091601E46D8463D46D8F80430321B0F2AFE
:1032500003F0010320D83343C8F80430DAF804300F
:1032600043F00103CAF8043048462F46FFF7F4FE46
:103270003846BDE8F88F1EF0010F8BD155F8083C99
:10328000A8EB030BDBF8041021F003017FE71146E4
:10329000BDE8F84FFFF73CBB08EB0401234342F0C5
:1032A0000102C8F804304A60DAF8043043F0010340
:1032B0000831CAF80430484602F0A6FED4E720F0F0
:1032C0000300311804F1100C61454FDA1EF0010FB4
:1032D0007FF460AF55F8081CA8EB010BDBF8041075
:1032E00021F00301084400EB060AD4453FF74FAF35
:1032F0005F46DBF80C1057F8080F321F242AC16014
:10330000886000F29980132A296840F29380CBF8F4
:1033100008106968CBF80C101B2AA96800F292808B
:103320000BF110020835116069685160A96891605D
:103330000BEB0401AAEB040242F0010299604A601F
:10334000DBF8043003F001031C434846CBF804408B
:10335000FFF782FE50E701606B6843601B2A3CD890
:1033600005F1080200F10803A9682DE708EB040045
:103370000A1B42F001029860426055F8043C03F0D9
:1033800001031C43484645F8044CFFF765FE2F46F1
:1033900032E7DAE902121E46CA6008EB030A9160BE
:1033A00052E750F8043C23F003031E4408EB060ADE
:1033B0004AE7294603F0B4F90BE7DAE902125F465F
:1033C000CA6091601CE73A4636E7294638461E46F1
:1033D000D84603F0A5F93D4636E7AB688360EB6855
:1033E000C360242A11D005F1100200F110032969ED
:1033F000EAE6CBF81010E968CBF81410242A0ED0B6
:1034000029690BF11802103516E72B6903616B6906
:103410004361A96905F1180200F11803D4E62A698D
:10342000CBF818206A69CBF81C20A9690BF120029F
:10343000183501E73A4676E72946384603F070F931
:103440000C4B75E7CBF81010E968CBF81410242A60
:1034500004D029690BF11802103564E72A69CBF80A
:1034600018206A69CBF81C20A9690BF120021835D5
:1034700059E700BFB804042038B5074C00230546BF
:103480000846236004F082F9431C00D038BD23684D
:10349000002BFBD02B6038BDA0540420000000009E
:1034A000000000000000000000000000000000001C
:1034B000000000000000000000000000000000000C
:1034C00090F800F06DE9024520F007016FF0000C64
:1034D00010F0070491F820F040F049804FF000040C
:1034E0006FF00700D1E9002391F840F000F10800E7
:1034F00082FA4CF2A4FA8CF283FA4CF3A2FA8CF31F
:103500004BBBD1E9022382FA4CF200F10800A4FA85
:103510008CF283FA4CF3A2FA8CF3E3B9D1E90423D9
:1035200082FA4CF200F10800A4FA8CF283FA4CF310
:10353000A2FA8CF37BB9D1E9062301F1200182FACA
:103540004CF200F10800A4FA8CF283FA4CF3A2FAD0
:103550008CF3002BC6D0002A04BF04301A4612BADE
:10356000B2FA82F2FDE8024500EBD2007047D1E9E1
:10357000002304F00305C4F100004FEAC50514F070
:10358000040F91F840F00CFA05F562EA05021CBF41
:1035900063EA050362464FF00004A9E7000000005B
:1035A0002DE9F04FBFB01C460491914605460890A6
:1035B00002F0CEFF036811931846FFF781FF0994CC
:1035C0000F901DB1AB6B002B00F090830499B1F903
:1035D0000C2093B29E04084607D4496E42F400536F
:1035E00021F40051838141669BB21D0740F1B280F6
:1035F000049A1269002A00F0AD8003F01A030A2B26
:1036000000F0B6809FEDA87B00238DED0C7B0E9320
:10361000CDE922331093129305932EAB21939A4652
:1036200099F80030002B00F0BF80252B00F0F486C5
:103630004D4603E0252B00F0A98025466B786C1CD5
:10364000002BF7D1B4EB090600F0AE80DDE92232A1
:1036500001333244072BCAF80090CAF80460CDE960
:10366000223200F398800AF1080A059A6B783244F6
:103670000592002B00F09880002367788DF8673062
:103680001A46194606939B4604F101094FF0FF368E
:1036900009F10109A7F12003582B00F22B83DFE881
:1036A00013F0DA0029032903D5002903290329038C
:1036B000290329032903CA00C5002903C000A70064
:1036C0002903A200930093009300930093009300BA
:1036D0009300930093002903290329032903290355
:1036E000290329032903290329039A0259022903DB
:1036F00059022903290329032903AC0229032903B9
:103700001D02290329032903290329034702290349
:1037100029032F0229032903290329032903290344
:103720002903290329032903A20148015902590247
:103730005902EC02480129032903DF022903C702C9
:10374000B102F602F10229031F012903090129032D
:103750002903E2000499089801F01CFA002841F0BE
:103760006E81049B9B8903F01A030A2B7FF44AAFF6
:10377000049BB3F90E30002BFFF644AF23464A46B4
:103780000499089801F0D0F9059019E0B4EB090606
:103790003FF472AF5AE721AA0499089803F0B4FBEA
:1037A00048B90DF1B80A60E7239B23B10898049942
:1037B00021AA03F0A9FB049B9B895A0601F13F81D2
:1037C00005983FB0BDE8F08FA7F13003002019F84D
:1037D000017B00EB800003EB4000A7F13003092BD5
:1037E000F5D9069056E74BF0800B99F800704FE73B
:1037F000484610F8017B2A2F01F07A81A7F13003A7
:10380000092B81464FF000063FF644AF19F8017BC3
:1038100006EB860603EB4606A7F13003092BF5D924
:1038200038E799F800704BF0040B31E799F8007015
:1038300001222B212CE7099B99F8007053F8040B07
:1038400006900028C0F29F86099321E74BF0010BF8
:1038500099F800701CE799F8007000297FF418AF00
:103860000122202114E7002A41F0E180104B10933F
:103870001BF0200F00F04D81099C073424F0070352
:10388000F3E8024509931BF0010F00F0448254EA6B
:10389000050300F0408230238DF868308DF86970A0
:1038A0004BF0020B022302E20000000000000000C7
:1038B000947A0000002A41F0B2801BF0200F40F003
:1038C0005C82099A1BF0100F52F8044B41F02481DE
:1038D0001BF0400F099218BFA4B200250123E6E1B6
:1038E000099C54F8043B0A9300258DF86750002B7F
:1038F00000F07686711C00F05287324629460A98FD
:1039000002F0BEFE002801F054800A9BC31A079300
:103910002E4623EAE3739DF867800994CDF808B03A
:1039200003930B96B8F1000F6FD0039B0133039301
:103930006BE0002A41F067801BF0200F40F0ED8122
:10394000099B1BF0100F03F1040241F0E280099B78
:1039500009921BF0400F14BFB3F900401C68E51733
:1039600022462B46002A73F10003594680F2E58176
:1039700064424FF02D0865EB4505721C8B468DF8AF
:1039800067804FF0010340F09981012B00F089839B
:10399000022B00F026842EA900E01146E20842EA3C
:1039A0004572E80804F0070305461446303354EA2C
:1039B000050001F8013C01F1FF32EED11BF0010FCF
:1039C0000A9200F0D184302B00F03B860A9ACDF8A1
:1039D00008B03023023902F8013C2EAB5B1A079382
:1039E0000A9100F016BC099C002354F8042B8DF8B2
:1039F00090208DF86730012224AB0392099407923E
:103A00000A930026CDF808B00B96029B13F0020330
:103A100002D0039A02320392029A239C12F0840B82
:103A200005D1069A0399551A002D00F34A839DF893
:103A3000672072B1229A013201340DF16700012131
:103A4000072ACDE92224CAE9000100F377830AF1AD
:103A5000080A6BB1229B013302341AA90222072BF8
:103A6000CDE92234CAE9001200F376830AF1080A8C
:103A7000BBF1800F00F0F581079BF61A002E00F3D2
:103A80003982029BDB0500F18181229B0A9ACAF8E8
:103A90000020079ACAF8042001331444072B23940A
:103AA000229300F39B820AF1080A029B590705D56D
:103AB000069B039A9D1A002D00F35A83DDE9053217
:103AC00003998A42ACBF9B185B180593002C40F009
:103AD0004B82002322930DF1B80AA1E5002A40F0A1
:103AE00086871BF0200F4BF0100340F03B81099AB2
:103AF0000432099909929B460C6800250023D6E000
:103B0000002A40F07887C24B10931BF0200F7FF4FF
:103B1000B3AE099B1BF0100F53F8044B099340F010
:103B200073841BF0400F00F06F84A4B20025AAE656
:103B3000002A40F080871BF0200F4BF0100340F06C
:103B40001B81099A0432099909929B460C68002549
:103B50000123ACE0002A40F05287099C073424F08E
:103B60000703B3EC027B55EC174B099325F0004398
:103B700015938DED147ADDE914014FF0FF32A54B5A
:103B80008DED0C7B03F028FC002840F05B844FF0A7
:103B9000FF32A04BDDE9140103F000FC002840F0E7
:103BA0005184002200232046294603F0EDFB002823
:103BB00040F066869DF86780974A984B032100265F
:103BC0002BF08000472FC8BF1A46039102900A923B
:103BD00007910B96A6E6002A40F019871BF0200FEC
:103BE0004BF0100140F09A80099B1A1D099B099225
:103BF0001C68E51722462B469AE04BF0080B99F813
:103C0000007045E5002A40F006871BF0200F40F0C9
:103C1000AA80099A1BF0100152F8044B40F07687F5
:103C20001BF0400309921CBF0B46A4B200253EE0E6
:103C3000002A40F0F886099A1BF0200F02F10403D5
:103C400040F0F6831BF0100F40F002851BF0400F90
:103C500000F0FE84099A09931268059B1380DFE443
:103C600099F800706C2F03BF99F801704BF0200B8E
:103C700009F101094BF0100B0AE54BF0400B99F8E4
:103C8000007005E54BF0200B99F8007000E5099CE9
:103C900054F8043B099447F630021C46604B1093DD
:103CA000ADF868204BF0020B0025022378274FF077
:103CB0000008721C8DF867803FF467AE2BF080021D
:103CC000029254EA050240F0E781002E40F026857A
:103CD000002B42D11BF00103079300F0A683302391
:103CE0008DF8B7300DF1B7030A9392E2089802F00D
:103CF00031F96BE4002A40F0DD85002F3FF454AD2C
:103D0000002301228DF8673024AB03928DF8907068
:103D100007920A9375E60223C9E75946099C0734BE
:103D200024F007031846F0E80223099014461D46C4
:103D3000002A73F10003FFF61BAE731C9DF8678029
:103D400000F01F8454EA050321F0800B40F0A981A4
:103D5000002E40F0AB81CDF808B000262EAB0796C0
:103D60000A9356E29B46099C073424F00703F3E8C4
:103D70000245099300239AE79B46099C073424F0E7
:103D80000703F3E802450993012390E7652F40F309
:103D9000318100220023DDE90C0103F0EBFA002859
:103DA00000F04082229B1F4ACAF8002001330134F0
:103DB0000122072BCDE92234CAF8042000F39584B0
:103DC0000AF1080A1B9B0E9A239C934280F22783D8
:103DD000229B119ACAF800200F9ACAF804200133D6
:103DE0001444072BCDE9223400F3EE830AF1080ACC
:103DF0000E9B5D1E002D7FF758AE102D229ADFF826
:103E000028B040F368841026089FDDF8108013E086
:103E1000807A0000FFFFEF7F707A0000747A000064
:103E2000947A0000B07A0000C47A00000AF1080A0F
:103E3000103D102D40F34F8401321034072ACDE994
:103E40002224CAE900B6F1DD21AA4146384603F032
:103E50005BF800287FF4AFACDDE922240DF1B80A4D
:103E6000E6E7069B039A9D1A002D7FF705AE102DFD
:103E7000229ADFF8A0B52DDD584653462146CA46A2
:103E8000BB46B1464FF01008089C049E074604E06C
:103E9000103D102D03F1080315DD01321031072A02
:103EA000CDE92221C3E90078F2DD21AA314620467E
:103EB00003F02AF800287FF47EAC103D102DDDE9D8
:103EC00022212EABE9DC4E46D1469A463B460C46B3
:103ED0005F469B4601322C44072ACDE92224CAE9D9
:103EE00000B500F30E84079BF61A002E0AF1080AAB
:103EF0007FF7C7AD102E229ADFF818B528DD594696
:103F00002346BB461025DDF82080049C0F4604E0C4
:103F1000103E102E0AF1080A16DD01321033072A6E
:103F2000CDE92223CAE90075F2DD21AA21464046E7
:103F300002F0EAFF00287FF43EAC103E102EDDE9CF
:103F400022230DF1B80AE8DC1C463B465F469B463F
:103F500001323444072ACDE92224CAE900B600F32D
:103F600046820AF1080A8CE521AA0499089802F011
:103F7000CBFF00283FF4ADAD1DE421AA04990898B9
:103F800002F0C2FF00287FF416AC1B9B239C0DF1AE
:103F9000B80A002B40F0C883029B0E9A03F001037D
:103FA00013433FF482AD229A119BCAF800300F9B55
:103FB000CAF8043001321C44072A2394229200F3E9
:103FC0008D840AF1080A0E9B0A9901321C44072AC3
:103FD000CDE92224CAE900137FF765AD21AA04992F
:103FE000089802F091FF00287FF4E5AB239C0DF1C7
:103FF000B80A5AE50E9A229B012A04F1010403F142
:1040000001050AF1080640F3B58101230A9ACAF8AE
:104010000020072DCDE92254CAF8043000F3238391
:104020000F9B119A01351C44072DCDE92254C6E996
:10403000002300F3248308366B1C1F46B8460E9FEE
:10404000079300220023DDE90C0106F1080A013F75
:1040500003F090F9002840F0A1810A9B77600133BA
:104060003C44B8F1070F33602394CDF8888000F307
:104070009B8206F1100305F1020856469A46129AF1
:10408000726014441DABB8F1070F2394CDF88880FB
:1040900033607FF70AADA1E7012BDDF808B07FF4AC
:1040A00077AC002D08BF0A2C80F03C81012330340E
:1040B00007930DF1B7038DF8B740CDF808B00A9318
:1040C000A7E0102D229A2CDD51462046CA464FF01B
:1040D0001008B14613932E46089C049D04E0103E40
:1040E000102E01F1080116DD0132C94B1030072AEC
:1040F000CDE92220C1E90038F1DD21AA2946204678
:1041000002F002FF00287FF456AB103E102EDDE9CE
:1041100022202EA9E8DC139B354604464E46D146A4
:104120008A460132BA492C44072ACDE92224CAE939
:10413000001500F3B0820AF1080A78E421AA049974
:104140000898139302F0E0FE00287FF434AB239C20
:10415000139B0DF1B80A7CE421AA0499089802F097
:10416000D3FE00287FF427AB239C0DF1B80A7FE42F
:10417000102D229B21DD1026089FDDF8108004E021
:10418000103D102D0AF1080A17DD0133A04A103442
:10419000072BCDE92234CAE90026F1DD21AA4146E8
:1041A000384602F0B1FE00287FF405AB103D102D1B
:1041B000DDE922340DF1B80AE7DC0133944A2C44DE
:1041C000072BCDE92234CAE900257FF777AC21AA75
:1041D0000499089802F098FE00287FF4ECAA239C2A
:1041E0006CE4DDF840C02EAA230904F00F0043EA76
:1041F000057329091C460D461CF8003002F8013DE4
:1042000054EA0503F0D12EAB9B1A0A92CDF808B000
:104210000793079BB342B8BF3346039300230B9326
:10422000FFF780BB1B9B002B40F344820B9B0E9A35
:104230009342A8BF1346002B1D460EDD229B0A9A0F
:10424000CAF8002001332C44072B2394CAF80450E9
:10425000229300F391830AF1080A0B9B002DA8BF5B
:104260005B1B002B1D4600F3C6811B9A0E9B9A42D6
:1042700080F28E81229B1199CAF800100F99CAF81A
:10428000041001330C44072B2394229300F305837D
:104290000AF1080A0B990E9B9142A3EB020380F2EC
:1042A000DE811D46002D10DD229ACAF80450DDE99A
:1042B0000A10013201442C44072ACAF80010CDE943
:1042C000222400F365830AF1080A002DACBF5D1BB0
:1042D0001D46002D7FF7E9AB102D229ADFF834B18F
:1042E00040F3F9811026089FDDF8108005E00AF1FF
:1042F000080A103D102D40F3EE8101321034072AD8
:10430000CDE92224CAE900B6F1DD21AA41463846AA
:1043100002F0FAFD00287FF44EAADDE922240DF117
:10432000B80AE6E72EABCDF80890C146B0461E4667
:1043300001E004460D460A2200232046294603F0E8
:1043400089F8303206F8012D00230A22204629463A
:1043500003F080F8002D08BF0A2CEAD232460A96F4
:104360004646C846DDF80890CDF808B02EAB9B1A3B
:1043700007934EE7029AD0073FF547AE01220A990C
:10438000CAF80010072DCDE92254CAF8042000F322
:104390000B8103F102080AF1100A70E6002F7FF783
:1043A0006EAE102FDFF86CB040F3A08323464FF0C1
:1043B0001008DDF820A0049C079D05E00836103F9A
:1043C000102F40F3F48101351033072DCDE922532E
:1043D000C6E900B8F2DD21AA2146504602F094FD5C
:1043E00000287FF4E8A9DDE922532EAEE7E721AAF1
:1043F0000499089802F088FD00287FF4DCA9239C2A
:104400000DF1B80AFFF73DBB0025FFF73CBA00BF2E
:10441000B47A0000C47A00004C46FFF72DB9029B25
:10442000DE073FF5D5ACFFF740BB2EAB0A93F0E6B5
:10443000059912680993CD1708462946C2E900017B
:10444000FFF7EEB8DDE90C0102460B4602F0C4FFAF
:10445000002840F02283741C27F0200500F0A7827A
:10446000472D00F03782DDE90C014BF48072002902
:104470000292C0F20B829DED0C7B8DED167B00232A
:104480001393662F00F0B081462F00F0AD81452DCB
:1044900000F03E821FAA1CABCDE9003202211BAB0B
:1044A00032469DED160B089800F0FAFC672F0A9033
:1044B000344640F03B821BF0010F40F03A821B9AD9
:1044C0001F9B0B920A9A472DA3EB02030E9306D172
:1044D0000B9BD81C02DB9E4280F23F82023F0B9B6B
:1044E0008DF874705A1E002A1B92B6BFC3F10102E8
:1044F0002B232D23092A8DF8753040F3BD820DF151
:1045000083042046B44D01E008461A4685FB02317B
:10451000D317C3EBA10303EB8301A2EB41013031BD
:10452000632A00F8011C00F1FF31EDDC3033821EFC
:10453000DBB2944201F8013C40F2E5820DF17602D3
:1045400001E011F8013B02F8013B8C42F9D10DF179
:1045500085030DF176021B1A13441DAA9B1A1293B0
:104560000E9A129B012A1344079340F3A382079BE0
:104570000F9A1344079323EAE373039300230B93E7
:104580006AE18B468DE5404206900993FFF74BB9EF
:10459000029BDD073FF56EAE0B990E9B8A42A3EBA3
:1045A00002035CDD1D4690E621AA0499089802F0FA
:1045B000ABFC00287FF4FFA8DDE922340DF1C00A2E
:1045C00003F101082EAE5AE521AA0499089802F0D9
:1045D0009BFC00287FF4EFA8239C0DF1B80A07E4A8
:1045E000062E334628BF0623079303937B4B09947B
:1045F0000A93FFF706BA102B229ADFF8E8B140F3CE
:1046000034811026089FDDF8108005E00AF1080AC1
:10461000103D102D40F3298101321034072ACDE9D5
:104620002224CAE900B6F1DD21AA4146384602F04B
:104630006BFC00287FF4BFA8DDE922240DF1B80A45
:10464000E6E70A9ACDF808B02EAB9B1A0793E0E58F
:10465000099A12680993059B1360FEF7E1BF0E9A51
:104660000B99551A1EE621AA0499089802F04CFCF1
:1046700000287FF4A0A8DDE922542EAED0E421AAC0
:104680000499089802F040FC00287FF494A8DDE922
:1046900022542EAED0E421AA04990898139302F074
:1046A00033FC00287FF487A8239C139B0DF1B80AE4
:1046B000FFF7BDB9229A4A49CAF800100132013405
:1046C0000121072ACDE92224CAF804103FF755AC8E
:1046D0000AF1080A5DE401322C44072ACDE92224BC
:1046E000CAE900B57FF7DFA978E421AA0499089800
:1046F00002F00AFC00287FF45EA80DF1B80AFFF76B
:1047000061BB21AA0499089802F0FEFB00287FF4FF
:1047100052A8239C0DF1B80AFFF7AEB9012BDDF8C2
:1047200008B07FF435A9C1E4229A1199CAF80010A3
:104730000F99CAF8041001320C44072A23942292DC
:1047400000F3CC800AF1080A002BBFF63CAC5D42B6
:104750001033DFF890B080F278815F461026DDF8E4
:104760001080DDF820B005E00AF1080A103D102D98
:1047700040F36A8101321034072ACDE92224CAE9C4
:104780000076F1DD21AA4146584602F0BDFB002823
:104790007FF411A8DDE922240DF1B80AE6E70A98B2
:1047A000FEF78EFE2E4603460790FFF7B2B81C4672
:1047B00005F1010806F108023C44B8F1070F239403
:1047C000C6E900B7CDF888803FF7EEAE08F10108E2
:1047D00002F1080A164652E467666666A87A000087
:1047E000B07A0000C47A00001FAA1CABCDE90032E9
:1047F00003211BAB32469DED160B089800F050FBD1
:104800000A900A9B1B78302B00EB060456D01B9BAA
:104810001C4400220023DDE9160102F0ABFD002854
:1048200000F08A8023460A9A9B1A0E93472D1B9B01
:104830000B933FF44DAE662F7FF451AE0B9A0BF005
:104840000103002A43EA060340F34381002B40F0B2
:104850001C810B9B03930793139B002B78D02D2374
:104860008DF867300026FFF760B801322C44072A24
:10487000CDE92224CAE900B53EDC0AF1080AF4E4D5
:104880004FF02D088DF86780FFF796B901F10043CE
:1048900017932D2316901393F3E521AA04990898F2
:1048A00002F032FB00287EF486AF1B9A239C0DF1A8
:1048B000B80AEFE48DF86710FFF71FBA0022002353
:1048C000DDE9160102F056FD0028A0D1C6F1010372
:1048D0001B939DE7002E08BF0126C4E521AA049979
:1048E000089802F011FB00287EF465AF1B9BDDE900
:1048F00022240DF1B80A27E721AA0499089802F0AA
:1049000003FB00287EF457AF239C0DF1B80AACE4FA
:104910001FA91CAB741CCDE9003122461BAB022140
:104920009DED160B089800F0BBFA0A90472F3FF454
:10493000C2AD0A9B1C446CE71F9BA342BFF473AF3C
:1049400030215A1C1F9219701F9B9C42F9D86AE7AC
:104950009DF86780139EFEF7E5BF0E9B19460B9BE3
:10496000994231DC1BF0010F40F0AA8023EAE37288
:104970000392079367276FE721AA0499089802F02A
:10498000C3FA00287EF417AF239C0DF1B80A64E443
:1049900021AA0499089802F0B7FA00287EF40BAF18
:1049A0001B9B0E9A239CD31A0DF1B80A8DE40626A0
:1049B00059E50396079609940646CDF808B00B9082
:1049C0009DF86780FEF7AEBFDDE90E3213440B9A07
:1049D0000793002A06DC0B9B079AC3F101031A44D4
:1049E0001346079223EAE3730393672734E78DF8AE
:1049F0006710FFF776B88DF86710FFF784B88DF869
:104A00006710FFF7AAB88DF86710FEF795BF8DF80D
:104A10006710FFF7E3B88DF86710FFF7F6B88DF869
:104A20006710FEF74ABF8DF86710FFF704B98DF8DD
:104A30006710FEF71BBF8DF86710FFF77CB84FF0CB
:104A4000FF330593FEF7BCBEBB4601322C44072A58
:104A5000CDE92224CAE900B57FF7B3AA21AA0499B7
:104A6000089802F051FA00287EF4A5AEDDE9222470
:104A70000DF1B80AFFF7A7BA302330328DF876303F
:104A800004238DF8772012936AE50F9BD3183344E3
:104A9000079323EAE3730393DEE60D9B204A002B82
:104AA000B6BF4FF02D089DF867808DF867801D4BCD
:104AB000FFF784B81BF001020B927FF458ADE8E7D2
:104AC0000B9B0F9A1344079323EAE373039367271F
:104AD000C2E61BB9012303930793BDE60F9B013385
:104AE0003344079323EAE3730393B5E6524663E640
:104AF000099B99F8017053F8046B0993814646EAC3
:104B0000E676FEF7C5BD0223129329E55B46FEF764
:104B1000F0BF5946FFF76AB85B46FFF714B800BF0D
:104B2000787A00007C7A0000F0B50C46ADF26C4D4E
:104B30008989666EE589199621F00201666AADF8E9
:104B40000E500025E769ADF80C10099606951AAECF
:104B50004FF480656946009604960295059507977F
:104B60000646FEF71DFD051E07DB3046694601F0CF
:104B700067F9002818BF4FF0FF35BDF80C305B0611
:104B800003D5A38943F04003A38128460DF26C4D61
:104B9000F0BD00BF38B5324B1B6805460C460BB163
:104BA0009A6B12B3B4F90C2093B2180725D520697B
:104BB00000282DD013F0010207D0636900225B4268
:104BC000A361A26038B1002038BD990758BF62695F
:104BD000A2600028F7D1B4F90C301A06F4D543F0DE
:104BE0004003A3814FF0FF3038BD184601F0B2F901
:104BF000B4F90C2093B21807D9D4D90628D5580790
:104C000012D4206942F00803A3819BB20028D1D1BD
:104C100003F42072B2F5007FCCD02846214601F083
:104C2000CFFCA3892069C5E7216B51B104F1400392
:104C3000994204D0284601F0E7F9B4F90C2000238A
:104C4000236300232069636022F024022060D9E7F7
:104C500042F0400209232B604FF0FF30A28138BDA3
:104C60008C000420F0B4184C2568D5F8484114B3E2
:104C700065681F2D24DC38B9AB1C0135656044F82C
:104C800023100020F0BC704704EB85060127C6F80E
:104C9000882007FA05F2D4F88871022847EA02074B
:104CA000C4F88871C6F80831E6D1D4F88C311A43BB
:104CB000C4F88C21E0E705F5A674C5F84841D7E7AC
:104CC0004FF0FF30DEE700BF687A0000024B13B1FF
:104CD0000248FDF7B9BD70470000000075280000CC
:104CE0002DE9F04F244B83B0D3F800B001908A46F1
:104CF0004FF00008DBF8486196B17468651E0FD468
:104D0000013406EB84040127BAF1000F0BD0D4F86C
:104D10000031534507D0013D6B1CA4F10404F3D1CD
:104D200003B0BDE8F08F73682268013BAB420CBF53
:104D30007560C4F80080002AEDD0D6F88811D6F846
:104D4000049007FA05FC1CEA010F08D1904772682D
:104D50004A45CFD1DBF84831B342DCD0CAE7D6F8B8
:104D60008C31D4F880101CEA030F02D101989047CF
:104D7000EDE708469047EAE7687A00002DE9F04F32
:104D800003690F69BB4283B0C0F28680013F01F125
:104D9000140600F1140A56F827305AF82720BC00F0
:104DA0000133009406EB04099A425444B2FBF3F831
:104DB00001943AD300252A46B646D4465EF8044B01
:104DC000DCF800301FFA84FB08FB0B554FEA154B4B
:104DD000240C08FB04B4ADB2551BA2B2C2EB1342C3
:104DE00015FA83F302EB23429BB243EA0243F145F7
:104DF0004FEA14454CF8043B4FEA2242DED2009BB6
:104E00005AF803308BB9019A131F9A450CD252F805
:104E1000043C4BB9A2F1080302E01A68043B1AB93A
:104E20009A4507F1FF37F8D30761044601F0F2FE17
:104E300000282DDB08F101085046002356F8041B1A
:104E400005688AB29A1A0B0C12FA85F2C3EB154365
:104E500003EB224392B242EA0342B14540F8042BED
:104E60004FEA2343EAD25AF827200AEB87037AB99C
:104E70001A1F92450BD253F8042C42B9083B02E0AA
:104E80001A68043B1AB99A4507F1FF37F8D327612E
:104E9000404603B0BDE8F08F002003B0BDE8F08FBE
:104EA0002DE9F04F57EC106B97B0056C209C0291E8
:104EB00082460A920793CDE9006755B1426C6A6059
:104EC00001239340AB60294601F0B8FC0023CAF8E7
:104ED00040303E1EB4BF012300232360764BBCBF8D
:104EE00026F000460196B34300F0AE809DED007BB6
:104EF0000022002351EC170B8DED047B02F03AFAEF
:104F0000054678B1079A01231360219B002B00F01E
:104F100013836A4B219A1360013B0393039817B0E4
:104F2000BDE8F08FDDE9047814AA15A948EC107BE0
:104F3000504601F007FF340D834640F09B80DDE9C9
:104F400014542C4404F23243202B40F3BB83C3F1AE
:104F500040039E40009B04F2124023FA00F03043CD
:104F6000FDF7E6F9A1F1F87301210246013C0E912B
:104F7000104619460022524BFDF79CF848A3D3E98E
:104F80000023FDF74FFA48A3D3E90023FDF794F877
:104F9000064620460F46FDF7DBF945A3D3E900237B
:104FA000FDF740FA02460B4630463946FDF784F8D5
:104FB00006460F4602F026FA0022814600233046BC
:104FC000394602F0E1F9002840F0A9822C1BB9F122
:104FD000160F04F1FF3800F296823A4B03EBC90337
:104FE000D3E90023DDE9040102F0CEF900286FD0F7
:104FF0000023B8F1000F09F1FF390D93C0F2898247
:1050000000230893B9F1000F68DA089BCDF81890D7
:10501000A3EB09030893C9F100030C93029B092B2E
:105020004FF0000962D8052B40F34A83043B0293FA
:105030000024029B023B032B00F24186DFE813F0C1
:10504000660463043B045604079A42F20F7313602C
:10505000009BC6F31306334318D1219B002B00F0AD
:105060002586194B03930833219A0398136017B0D0
:10507000BDE8F08FC8F3130141F07F530E953A4617
:10508000A4F2FF3443F44013149D71E7219B002BDD
:1050900040F000840D4B039340E700BFAFF3008066
:1050A00061436F63A787D23FB3C8608B288AC63F2E
:1050B000FB799F501344D33F0000F07FB17A00008A
:1050C0000000F83F207B0000D87A0000D47A00006E
:1050D000B8F1000FC0F2B6840D90089000230C9335
:1050E000029BCDF81890092BC8449CD900230124B9
:1050F000CDE90A344FF0FF35029309950021CAF833
:1051000044100F95504601F073FB0E2D0390CAF822
:10511000400000F20A81002C00F007810699002966
:1051200040F36684B14B01F00F0203EBC20393ED31
:10513000007B0C11E3068DED107B40F10684AC4B37
:10514000DDE90401D3E90823FDF796FACDE9000172
:1051500004F00F0403267CB1DDE91001A44DE7073C
:1051600004D5D5E90023FDF75DF90136641005F19A
:105170000805F4D1CDE91001DDE90001DDE91023D6
:10518000FDF77AFACDE900010D9B53B1DDE9004549
:105190000022984B2046294602F0F6F8002840F0FD
:1051A00021853046FDF7D4F8DDE90023FDF73AF913
:1051B000914B0022FCF780FF099B0446A1F150753A
:1051C000002B00F0F983069B1293099B1093DDE9F5
:1051D00000673946304602F015F90090FDF7B8F83F
:1051E00002460B4630463946FCF764FF7F4B009A77
:1051F0000F461099064603EBC1030B980399303212
:10520000CDE90045D5B24C1C53E90223002800F03B
:105210008D8400207949FDF72FFADDE90023FCF7A2
:1052200049FF039B32461D703B46CDE9000102F069
:10523000C9F8002840F0CA8432463B4600206D4938
:10524000FCF738FF02460B46DDE9000102F0BAF830
:10525000002840F02685109B012B62D0039ACDF8E0
:1052600040901344CDF84C80DDE90089CDF800B0C2
:10527000D3469A460CE000205E49FCF71BFF4246ED
:105280004B4602F081F8002840F0EB84A24541D063
:105290004046494600225A4BFDF7C4F80022584BBD
:1052A0008046894630463946FDF7BCF80F4606462B
:1052B00002F0A8F80546FDF74BF802460B463046CB
:1052C0003946FCF7F7FE3035EDB242464B4604F85E
:1052D000015B06460F4602F057F832463B4600286F
:1052E000C9D0129BDA460133DDF800B00693594667
:1052F000504601F0A3FA00232370079B1A46069B31
:105300001360219B002B3FF409AE03981C6017B07B
:10531000BDE8F08FDA46DDF84090DDF84C80DDF82E
:1053200000B0DDE90434CDE90034159B002BC0F258
:10533000C980069A0E2A00F3C5802C4B03EBC203EA
:10534000D3E900890A9B002B17DA099F002F14DC90
:1053500040F04B8300222B4B40464946FDF762F854
:10536000DDE9002302F024F8002800F0BE83099F45
:105370003D460A9B039CDB4360E2DDE90045424673
:105380004B4620462946FDF777F902F03BF800909E
:10539000FCF7DEFF42464B46FDF744F802460B465B
:1053A00020462946FCF786FE009B039C069A303374
:1053B00004F8013B099B0132012B06460F46069279
:1053C00054D000220E4BFDF72DF800220023064694
:1053D0000F4601F0CFFF002889D1CDF800B001259C
:1053E000DDF824B0CDF808A019E000BF207B000054
:1053F000F87A00000000F03F00001C400000E03F91
:105400000000244000001440FDF70CF800220023A7
:1054100006460F4601F0AEFF002840F05C8342468E
:105420004B4630463946FDF727F901F0EBFF82463F
:10543000FCF78EFF42464B46FCF7F4FF02460B4654
:1054400030463946FCF736FE01350AF1300CAB45E3
:1054500006460F464FF00002A74B04F801CBD3D10C
:10546000DDF800B0CDF800A0DDF808A032463B46DC
:1054700030463946FCF720FE42464B4606460F466C
:1054800001F0A0FF60B942464B463046394601F074
:1054900071FF00283FF42BAF009BDB077FF527AFA0
:1054A00014F8015C039A631E04E09A4200F0C08382
:1054B00013F8015D392D03F10104F6D06A1CD2B254
:1054C0001A7014E70B9A002A3CD0029A012A40F382
:1054D0005882099B5E1E0C9BB34280F234820C9B67
:1054E0000C96F31A99440026099B002BC0F2F8820F
:1054F000089A14461A44984408920121504601F033
:105500003DFA054621E00123B8F1000F0D93BFF6E7
:1055100077ADC4F1010308934FF0000872E54846E7
:10552000FCF716FF32463B4601F024FF00287FF4CB
:105530004DAD09F1FF3949E5704B0393039817B05E
:10554000BDE8F08F0C9E089C0B9D002C0CDDB8F183
:10555000000F09DD4445089A2346A8BF4346D21AE6
:105560000892E41AA8EB03080C9BD3B10B9B002B09
:1055700000F08981002E10DD29463246504601F0A8
:105580009FFA5A4601460546504601F001FA59462F
:105590000746504601F052F9BB460C9B9A1B40F05F
:1055A00073810121504601F0E9F9B9F1000F074676
:1055B00000F38E80029B012B40F3718100260120B5
:1055C000B9F1000F40F08F80404410F01F0075D0FB
:1055D000C0F12003042B40F36D83C0F11C00089B35
:1055E0000344089304448044089B002B05DD59467E
:1055F0001A46504601F0B4FA8346B8F1000F05DDB3
:1056000039464246504601F0ABFA07460D9B002B47
:1056100040F01E81099B002B40F3F580069B01336F
:1056200006930B9B002B77D1039CDDF82480012689
:1056300003E001F00DF90136834639465846FFF77D
:105640009DFB464500F1300904F8019B4FF0000333
:105650004FF00A0259465046EBDB002300935946AF
:105660000122504601F07CFA3946834601F0D2FA15
:10567000002814F8012C40F36F81631E039904E0A5
:10568000994200F0778113F8012D392A03F10104C2
:10569000F6D001321A703946504601F0CFF8002D8D
:1056A0003FF425AE009921B1A94202D0504601F045
:1056B000C5F82946504601F0C1F818E61C208EE7CF
:1056C0000124B6E4C3F12006009B03FA06F047E488
:1056D00001464A46504601F0F3F9029B012B07466A
:1056E00040F3B28100263B6907EB8303186901F0A0
:1056F000F5F8C0F1200067E700002440B07A000010
:10570000294600230A22504601F0A2F80F9B002BE5
:10571000054640F3C1820993002C00F30D81002E51
:1057200040F0C581A846009B0299039E03F0010248
:105730000B920A430A92099A731E1A4409923C4634
:1057400021465846FFF71AFB29460090584601F0BB
:1057500061FA424607462146504601F077FA009B1F
:1057600003F13002C3688146002B3ED10146584602
:10577000089201F04FFA49460490504601F05EF855
:10578000049B089A1BB90A99002900F07182002F26
:1057900006F10109C0F26E8102990F430B9939435A
:1057A00000F06881002B00F3A281099B3270B342A4
:1057B00000F0A981594600230A22504601F048F81A
:1057C0004545834629464FF000034FF00A025046F4
:1057D00013D001F03DF84146054600230A22504609
:1057E00001F036F84E468046AAE70146504604923C
:1057F00001F024F80123049AC9E701F029F84E4684
:10580000054680469CE7029B022B40F38280099B61
:10581000002B7FF4AEAD39460522504601F018F852
:1058200001460746584601F0F5F900287FF7A1AD7B
:10583000039C069B312204F8012B013301333946C6
:105840005046069300F0FAFF002D7FF432AF4EE58C
:105850003946584601F0DEF90028BFF6DBAE59465E
:1058600000230A22504600F0F3FF069B03F1FF38A5
:105870000B9B8346002B7FF443AF0F9B002B40F321
:1058800002820993D0E60C9A5946504601F018F965
:10589000834686E69F4B03930333FFF7E5BBDDE9C1
:1058A000001200297FF48AAEC2F31303002B00F02C
:1058B000D580009E83E601230B930A98002846DDDD
:1058C0000F90099000211728CAF84410099D7FF70E
:1058D00019AC012204235B0003F11406B042114607
:1058E00002F10102F7D2CAF844100BE401230B9332
:1058F0000A9B069A13440F930133012B1846099310
:10590000B8BF0120DEE700230B93F1E700230B93E0
:10591000D3E7069B013306930B9B002B7FF4FCAE71
:1059200039465846FFF72AFA039C00F13009002354
:1059300004F8019B009392E629462246504601F066
:105940000FF90546EBE69E1BCEE5022603E4012592
:10595000CDE90955FFF7D2BB03D119F0010F7FF450
:105960008CAE631E01E013F8012D302A03F101040F
:10597000F9D090E6069A01320692039A3123137009
:1059800089E60E9A002A00F0268103F23343089A32
:105990000C9E14461A4498440892AEE53046FCF733
:1059A000D7FCDDE90023FCF73DFD00225A4BFCF754
:1059B00083FB0446A1F150750022584BDDE900013C
:1059C000FCF778FB22462B4606460F4601F0FAFC10
:1059D000002840F08980224605F1004330463946D0
:1059E00001F0D2FC00283FF49CAC00273D46C0E407
:1059F00000F0F580069B5C42494B04F00F0203EB7C
:105A0000C203D3E90023DDE90401FCF70BFD2411F7
:105A1000CDE9000100F0E380424D00230226E207B9
:105A200005D5D5E90023FCF7FDFC01360123641000
:105A300005F10805F3D1002B3FF4A6ABCDE9000139
:105A4000FFF7A2BB0D9064E5DDE9001200297FF4A9
:105A500049AEC2F31303002B7FF444AE324E16401E
:105A6000002E3FF4ACAD089B0133089308F1010808
:105A70000126A4E5002B27464C46914612DD5946E7
:105A80000122504601F06CF83946834601F0C2F815
:105A9000002840F3DF80B9F1390F00F0D080009B7F
:105AA00003F13109009586F800904546F3E56968F1
:105AB000504600F09DFE2B6902339A00044605F122
:105AC0000C010C30FDF7DCF921460122504601F0B3
:105AD00047F8804627E6DDF800B0DDF808A006E4C8
:105AE000DDE908329C1A08E500273D46A0E6392A80
:105AF00027464C4600F0A38002F10109009586F884
:105B000000904546C7E5274600954C4645469146D8
:105B1000A5E500BFD47A000000001C40000014403E
